:100000000C942A000C9499130C94D0130C9407149C
:100010000C9447000C9447000C9447000C94470044
:100020000C9447000C9447000C94E9100C943B117D
:100030000C9447000C9447000C9447000C94470024
:100040000C942F1A0C9447000C9447000C94470012
:100050000C94470011241FBECFE5D8E0DEBFCDBF12
:1000600013E0A0E6B0E0E4E0F7E702C005900D92EF
:10007000A632B107D9F713E0A6E2B3E001C01D92A2
:10008000A534B107E1F70E94A23A0C94803B0C948E
:100090000000A0E3B0E0EFE4F0E00C94493BA8E0FE
:1000A0004E010894811C911CF401BA2F1192BA954B
:1000B000E9F729833A834B835C836D837E838F8347
:1000C0009887CE010996FC011192AA95E9F7A986B5
:1000D000BA86CB86DC86ED86FE860F87188B298153
:1000E0003A814B815C812DA73EA74FA758AB790180
:1000F0008A018FEF9FEFA0E0B0E0E822F9220A2307
:100100001B231A014424552429853A854B855C8597
:1001100029A73AA74BA75CA759016A01A822B922CF
:10012000CA22DB223A0188249924C601B501A8011C
:1001300097010E94CD3A6DA37EA38FA398A7C40117
:10014000B3010E94CD3A69A37AA38BA39CA3C601F5
:10015000B501A20191010E94CD3A7B018C01C4013D
:10016000B3010E94CD3A5B016C0189A19AA1ABA1B8
:10017000BCA18E0D9F1DA01FB11F89A39AA3ABA385
:10018000BCA32DA13EA14FA158A5CA01AA27BB27F8
:1001900029A13AA14BA15CA1280F391F4A1F5B1F5F
:1001A00029A33AA34BA35CA32E153F054007510793
:1001B00040F480E090E0A1E0B0E0A80EB91ECA1EB5
:1001C000DB1E89A19AA1ABA1BCA19D0144275527A3
:1001D0002A0D3B1D4C1D5D1D2D8F3E8F4F8F58A34B
:1001E0006C01BB24AA248DA19EA1AFA1B8A5A070CB
:1001F000B070A80EB91ECA1EDB1EA98EBA8ECB8E99
:10020000DC8E9A8C8B8C7C8C9E8D6F8D78A1FE0100
:10021000719688E0DF011D928A95E9F72D8B9E8B00
:100220006F8B788F2D853E854F8558896DA57EA56E
:100230008FA598A90E94CD3A7B018C012D813E812A
:100240004F81588569A57AA58BA59CA50E94CD3ABA
:10025000E60EF71E081F191F6D897E898F89988DFC
:100260006E0D7F1D801F911F6D8B7E8B8F8B988FE6
:10027000EE892A2D392D482D572D7E2F8F89988D67
:10028000E096E2E10C94653BEF92FF920F93DF93CF
:10029000CF93CDB7DEB760970FB6F894DEBF0FBE31
:1002A000CDBFA82F002309F461C07E010894E11C92
:1002B000F11C88E0F70111928A95E9F729833A83C6
:1002C0004B835C836D837E83AF83988780E2801B42
:1002D000E82FFF27E7FDF0954D815E816F817885DE
:1002E000181684F01D861E861F86188A882799276F
:1002F0008E1B9F0B04C076956795579547958A95F9
:10030000D2F728C0202F332727FD3095DB01CA0103
:10031000022E04C0B695A795979587950A94D2F7B3
:100320008D879E87AF87B88B04C0440F551F661F0B
:10033000771FEA95D2F789819A81AB81BC8104C08D
:10034000B695A795979587952A95D2F7482B592B5F
:100350006A2B7B2B49875A876B877C8729853A854F
:100360004B855C856D857E85AF8598898A2F6096E3
:100370000FB6F894DEBF0FBECDBFCF91DF910F91C6
:10038000FF90EF900895EF92FF920F931F937B01E0
:100390008C0120E030E040E05FE40E949F0588236C
:1003A0008CF0C801B70120E030E040E05FE40E943B
:1003B0003B030E945D069B01AC0120503040404051
:1003C000504806C0C801B7010E945D069B01AC0100
:1003D000B901CA011F910F91FF90EF900895A0E01D
:1003E000B0E0E5EFF1E00C94493BDC012B01FA01B0
:1003F0009C91923008F439C1EB018881823008F475
:1004000033C1943069F4843009F02FC111969C9166
:1004100011978981981709F428C1A2E9B1E025C193
:10042000843009F421C18230A9F4923009F01DC151
:100430009A01AD0188E0EA010990AE01E901099253
:100440009E018150C1F7E201898111969C91892317
:10045000818308C1923009F407C112962D903C9017
:100460001397EB018A819B811496AD90BD90CD903E
:10047000DC901797EC80FD800E811F819101281B75
:10048000390BB90137FF04C066277727621B730B4E
:10049000603271050CF061C0121613066CF537015D
:1004A0004801062E04C096948794779467940A9422
:1004B000D2F721E030E040E050E004C0220F331FCB
:1004C000441F551F6A95D2F721503040404050409C
:1004D0002E213F214023512321153105410551058E
:1004E00021F021E030E040E050E079018A01E62887
:1004F000F728082919293CC0232BD1F1260E371ED5
:1005000035014601062E04C096948794779467942B
:100510000A94D2F721E030E040E050E004C0220F1E
:10052000331F441F551F6A95D2F721503040404079
:1005300050402A213B214C215D21211531054105E7
:10054000510521F021E030E040E050E059016A011E
:10055000A628B728C828D9280BC0821593052CF0E7
:100560001C01AA24BB24650103C0EE24FF248701DB
:1005700011969C91D20111968C91981709F445C05F
:10058000992339F0A80197012A193B094C095D0903
:1005900006C0A60195012E193F09400B510B57FDCE
:1005A00008C0118233822282248335834683578395
:1005B0001DC081E081833382228288279927DC0154
:1005C000821B930BA40BB50B84839583A683B783FF
:1005D0000DC0220F331F441F551F248335834683CC
:1005E000578382819381019793838283248135810C
:1005F00046815781DA01C9010197A109B1098F5FCD
:100600009F4FAF4FBF4328F30BC0918333822282A9
:10061000EA0CFB1C0C1D1D1DE482F582068317836A
:1006200083E08083248135814681578157FF1AC03A
:10063000C901AA2797FDA095BA2F81709070A0706C
:10064000B0705695479537952795822B932BA42B01
:10065000B52B84839583A683B7838281938101968A
:1006600093838283DF0101C0D201CD01CDB7DEB714
:10067000E2E10C94653BA0E2B0E0E1E4F3E00C942D
:10068000553B69837A838B839C832D833E834F8381
:100690005887E9E0EE2EF12CEC0EFD1ECE010196FE
:1006A000B7010E944E088E010F5E1F4FCE010596C6
:1006B000B8010E944E088A8991E089278A8BC70178
:1006C000B801AE01475E5F4F0E94EF010E947907BB
:1006D000A096E6E00C94713BA0E2B0E0E2E7F3E024
:1006E0000C94553B69837A838B839C832D833E8353
:1006F0004F835887F9E0EF2EF12CEC0EFD1ECE0152
:100700000196B7010E944E088E010F5E1F4FCE0169
:100710000596B8010E944E08C701B801AE01475EB8
:100720005F4F0E94EF010E947907A096E6E00C94CB
:10073000713BA0E2B0E0EFE9F3E00C94493B698340
:100740007A838B839C832D833E834F835887CE018E
:100750000196BE01675F7F4F0E944E08CE0105964D
:10076000BE016F5E7F4F0E944E089985923088F0DF
:1007700089898230C8F0943019F4823051F404C071
:10078000843029F4923081F482E991E0C6C092303D
:1007900049F420E09A858A89981321E02A87CE01BE
:1007A0000996BBC0823049F420E09A858A89981363
:1007B00021E02A8BCE014196B0C02D843E844F8427
:1007C00058886D887E888F88988CEE24FF24870156
:1007D000AA24BB24650140E050E060E070E0E0E066
:1007E000F0E0C10181709070892BE9F0E60CF71CF4
:1007F000081D191D9A01AB012A0D3B1D4C1D5D1DE5
:1008000080E090E0A0E0B0E0E614F70408051905E8
:1008100020F481E090E0A0E0B0E0BA01A901480F27
:10082000591F6A1F7B1FAA0CBB1CCC1CDD1C97FE2A
:1008300008C081E090E0A0E0B0E0A82AB92ACA2A66
:10084000DB2A3196E032F10549F0660C771C881CF2
:10085000991C5694479437942794C3CFFA85EA8914
:100860002B893C898B859C85280F391F2E5F3F4F34
:1008700017C0CA0181709070892B61F01695079599
:10088000F794E79480E090E0A0E0B0E8E82AF92A45
:100890000A2B1B2B76956795579547952F5F3F4FF2
:1008A00077FDE7CF0CC0440F551F661F771F17FD5C
:1008B0004160EE0CFF1C001F111F215030404030E2
:1008C00090E0590790E0690790E4790760F32B8F77
:1008D0003C8FDB01CA018F779070A070B0708034BC
:1008E0009105A105B10561F447FD0AC0E114F104C9
:1008F0000105110529F0405C5F4F6F4F7F4F407835
:100900001A8EFE1711F081E08A8F4D8F5E8F6F8FE8
:1009100078A383E0898FCE0149960E947907A0963B
:10092000E2E10C94653BA8E1B0E0E9E9F4E00C9465
:10093000513B69837A838B839C832D833E834F83D2
:100940005887B9E0EB2EF12CEC0EFD1ECE0101967E
:10095000B7010E944E088E010F5E1F4FCE01059613
:10096000B8010E944E082985223008F47EC03989DA
:10097000323010F4B8017CC08A859A8989278A8729
:10098000243011F0223031F4231709F06EC062E9EF
:1009900071E06EC0343039F41D861E861F86188AB9
:1009A0001C861B8604C0323021F484E08987B7019D
:1009B0005FC02B853C858B899C89281B390B3C8724
:1009C0002B87ED84FE840F851889AD88BE88CF887B
:1009D000D88CEA14FB040C051D0540F4EE0CFF1C3A
:1009E000001F111F215030403C872B8720E030E052
:1009F00040E050E080E090E0A0E0B0E460E070E033
:100A0000EA14FB040C051D0540F0282B392B4A2B5A
:100A10005B2BEA18FB080C091D09B695A79597955D
:100A20008795EE0CFF1C001F111F6F5F7F4F6F310A
:100A3000710531F7DA01C9018F779070A070B0703D
:100A400080349105A105B10561F427FD0AC0E114C8
:100A5000F1040105110529F0205C3F4F4F4F5F4F16
:100A600020782D873E874F87588BBE01675F7F4F69
:100A7000CB010E9479076896EAE00C946D3BA8E1EF
:100A8000B0E0E5E4F5E00C94553B69837A838B8311
:100A90009C832D833E834F83588789E0E82EF12C79
:100AA000EC0EFD1ECE010196B7010E944E088E018C
:100AB0000F5E1F4FCE010596B8010E944E08898532
:100AC000823040F08989823028F0C701B8010E9445
:100AD000C60801C081E06896E6E00C94713BA8E18D
:100AE000B0E0E5E7F5E00C94553B69837A838B83AE
:100AF0009C832D833E834F83588789E0E82EF12C19
:100B0000EC0EFD1ECE010196B7010E944E088E012B
:100B10000F5E1F4FCE010596B8010E944E088985D1
:100B2000823040F08989823028F0C701B8010E94E4
:100B3000C60801C08FEF6896E6E00C94713BA8E10F
:100B4000B0E0E5EAF5E00C94553B69837A838B834A
:100B50009C832D833E834F83588789E0E82EF12CB8
:100B6000EC0EFD1ECE010196B7010E944E088E01CB
:100B70000F5E1F4FCE010596B8010E944E08898571
:100B8000823040F08989823028F0C701B8010E9484
:100B9000C60801C08FEF6896E6E00C94713BA8E1AF
:100BA000B0E0E5EDF5E00C94553B69837A838B83E7
:100BB0009C832D833E834F83588789E0E82EF12C58
:100BC000EC0EFD1ECE010196B7010E944E088E016B
:100BD0000F5E1F4FCE010596B8010E944E08898511
:100BE000823040F08989823028F0C701B8010E9424
:100BF000C60801C081E06896E6E00C94713BA8E06D
:100C0000B0E0E5E0F6E00C94523B9B01AC0183E0E0
:100C10008983DA01C9018827B7FD83959927AA2717
:100C2000BB27B82E211531054105510519F482E085
:100C300089833AC08823A9F0203080E0380780E01B
:100C4000480780E8580729F460E070E080E09FECF6
:100C500030C0EE24FF248701E21AF30A040B150BBF
:100C600002C079018A018EE1C82ED12CDC82CB82B0
:100C7000ED82FE820F831887C801B7010E942A0700
:100C800001971816190684F4082E04C0EE0CFF1CF8
:100C9000001F111F0A94D2F7ED82FE820F8318877E
:100CA000C81AD90ADC82CB82BA82CE0101960E9490
:100CB00079072896E9E00C946E3BACE0B0E0E3E6FF
:100CC000F6E00C94593B69837A838B839C83CE0135
:100CD0000196BE016B5F7F4F0E944E088D8182306E
:100CE00061F1823050F1843021F48E81882351F1FA
:100CF0002EC02F81388537FD20C06E812F31310500
:100D00001CF06623F9F023C08EE190E0821B930B68
:100D100029853A854B855C8504C05695479537955E
:100D200027958A95D2F76623B1F050954095309576
:100D300021953F4F4F4F5F4F0EC020E030E040E025
:100D400050E009C02FEF3FEF4FEF5FE704C020E016
:100D500030E040E050E8B901CA012C96E2E00C9482
:100D6000753BA8E0B0E0E7EBF6E00C94513B7B016B
:100D70008C01611571058105910519F482E0898363
:100D800060C083E089838EE1C82ED12CDC82CB82C7
:100D9000ED82FE820F831887C801B7010E942A07DF
:100DA000FC013197F7FF3BC0222733272E1B3F0B57
:100DB00057016801022E04C0D694C794B794A79433
:100DC0000A94D2F740E050E060E070E081E090E00B
:100DD000A0E0B0E004C0880F991FAA1FBB1F2A958E
:100DE000D2F70197A109B1098E219F21A023B12338
:100DF0000097A105B10521F041E050E060E070E00E
:100E00004A295B296C297D294D835E836F8378870E
:100E10008EE190E08E1B9F0B9C838B8312C03097DA
:100E200081F00E2E04C0EE0CFF1C001F111F0A944F
:100E3000D2F7ED82FE820F831887CE1ADF0ADC829A
:100E4000CB821A82CE0101960E9479072896EAE0A9
:100E50000C946D3BEF92FF920F931F937B018C01DB
:100E600080E0E81680E0F80681E0080780E01807D7
:100E700088F48FEFE816F1040105110531F028F030
:100E800088E090E0A0E0B0E017C080E090E0A0E053
:100E9000B0E012C080E0E81680E0F80680E00807C5
:100EA00081E0180728F088E190E0A0E0B0E004C0FD
:100EB00080E190E0A0E0B0E020E230E040E050E0EF
:100EC000281B390B4A0B5B0B04C016950795F7944A
:100ED000E7948A95D2F7F701E656FE4F8081281BEA
:100EE000310941095109C9011F910F91FF90EF90FC
:100EF0000895DF92EF92FF920F931F93FC01E4801D
:100F0000F58006811781D1808081823048F480E0AD
:100F100090E0A0E1B0E0E82AF92A0A2B1B2BA5C03B
:100F2000843009F49FC0823021F4EE24FF2487012D
:100F300005C0E114F1040105110519F4E0E0F0E049
:100F400096C0628173819FEF623879070CF05BC0B5
:100F500022E83FEF261B370B2A3131052CF020E029
:100F600030E040E050E02AC0B801A701022E04C0E2
:100F700076956795579547950A94D2F781E090E06A
:100F8000A0E0B0E004C0880F991FAA1FBB1F2A95DC
:100F9000D2F70197A109B1098E219F21A023B12386
:100FA0000097A105B10521F081E090E0A0E0B0E05C
:100FB0009A01AB01282B392B4A2B5B2BDA01C90193
:100FC0008F779070A070B07080349105A105B10545
:100FD00039F427FF09C0205C3F4F4F4F5F4F04C0DB
:100FE000215C3F4F4F4F5F4FE0E0F0E02030A0E04A
:100FF0003A07A0E04A07A0E45A0710F0E1E0F0E069
:1010000079018A0127C06038710564F5FB01E15858
:10101000FF4FD801C7018F779070A070B0708034F7
:101020009105A105B10539F4E7FE0DC080E490E01B
:10103000A0E0B0E004C08FE390E0A0E0B0E0E80EF4
:10104000F91E0A1F1B1F17FF05C016950795F79479
:10105000E794319687E016950795F794E7948A957B
:10106000D1F705C0EE24FF248701EFEFF0E06E2FEB
:10107000679566276795902F9F77D794DD24D7943F
:101080008E2F8695492F462B582F5D29B701CA010F
:101090001F910F91FF90EF90DF900895FC01DB010D
:1010A000408151812281622F6F7770E0221F2227B9
:1010B000221F9381892F880F822B282F30E0991FC0
:1010C0009927991F11969C93119721153105A9F520
:1010D000411551056105710511F482E037C082E8C0
:1010E0009FEF13969C938E9312979A01AB0167E042
:1010F000220F331F441F551F6A95D1F783E08C934D
:101100000DC0220F331F441F551F12968D919C91C5
:101110001397019713969C938E931297203080E03B
:10112000380780E0480780E4580758F314962D9359
:101130003D934D935C93179708952F3F310579F4B4
:10114000411551056105710519F484E08C930895EA
:1011500064FF03C081E08C9312C01C9210C02F5713
:10116000304013963C932E93129783E08C9387E044
:10117000440F551F661F771F8A95D1F77064149628
:101180004D935D936D937C93179708951F93DC01A6
:10119000FB019C91923008F447C08081823008F4B2
:1011A00043C0943051F411961C91843099F581819B
:1011B000682F70E0611B71093FC0843021F09230CC
:1011C00031F48230B9F18181882389F12DC01196E3
:1011D0001C9111978230F1F081811817D9F4129681
:1011E0002D913C911397828193818217930794F0FC
:1011F00028173907BCF014968D919D910D90BC91E4
:10120000A02D2481358146815781281739074A0747
:101210005B0718F4112341F00AC082179307A40753
:10122000B50740F4112319F061E070E005C06FEFDD
:101230007FEF02C060E070E0CB011F910895DF9363
:10124000CF9300D0CDB7DEB781E08A83198283C007
:101250008981282F30E0C901880F991F880F991FB5
:10126000820F931FFC01EB55FD4F40818981282F90
:1012700030E0C901880F991F880F991F820F931FB3
:10128000FC01EA55FD4F9081842F692F0E94460D85
:101290008981282F30E0C901880F991F880F991F75
:1012A000820F931FFC01EB55FD4F40818981282F50
:1012B00030E0C901880F991F880F991F820F931F73
:1012C000FC01E855FD4F9081842F692F0E94AB0DE2
:1012D0008981282F30E0C901880F991F880F991F35
:1012E000820F931FFC01EB55FD4F40818981282F10
:1012F00030E0C901880F991F880F991F820F931F33
:10130000FC01E755FD4F9081842F692F0E94A60EA6
:101310008981282F30E0C901880F991F880F991FF4
:10132000820F931FFC01EB55FD4F40818981282FCF
:1013300030E0C901880F991F880F991F820F931FF2
:10134000FC01E955FD4F9081842F692F0E94410EC9
:1013500089818F5F89839091A4028981891708F41C
:1013600077CF8A810F900F90CF91DF910895DF930F
:10137000CF9300D00F92CDB7DEB78A836B8381E025
:1013800089838A816B810E94460D898389818823A4
:1013900079F48A81282F30E0C901880F991F880FBE
:1013A000991F820F931FFC01EA55FD4F8B818083AB
:1013B00089810F900F900F90CF91DF910895DF9367
:1013C000CF9300D00F92CDB7DEB78A836B838A812B
:1013D0006B810E94AB0D89838981882379F48A818E
:1013E000282F30E0C901880F991F880F991F820F9D
:1013F000931FFC01E855FD4F8B81808389810F90FD
:101400000F900F90CF91DF910895DF93CF9300D08D
:101410000F92CDB7DEB78A836B8381E089838A819F
:101420006B810E94410E89838981882379F48A81A6
:10143000282F30E0C901880F991F880F991F820F4C
:10144000931FFC01E955FD4F8B81808389810F90AB
:101450000F900F90CF91DF910895EF92FF920F932D
:101460001F93DF93CF93CDB7DEB72E970FB6F894C7
:10147000DEBF0FBECDBF8A877C876B8781E08987FF
:101480008A85282F30E03E872D878D859E850097A1
:1014900039F02D853E852130310509F43BC138C135
:1014A0008B859C85CC01A0E0B0E0BC01CD010E9401
:1014B000B106DC01CB01BC01CD012D813E814F8104
:1014C00058850E949F0588230CF486C080E060E068
:1014D0000E94460D8B859C85CC01A0E0B0E020E801
:1014E0003EE340E050E0BC01CD010E94CD3A7B01DB
:1014F0008C018A85282F30E0C901880F991F880F39
:10150000991F820F931FFC01E855FD4F8081882FA2
:1015100090E00197880F991FFC01E655FD4F8081EF
:1015200091819C0140E050E0C801B7010E940C3B52
:10153000DA01C9019C838B838B819C8181509F4FF1
:10154000892F992790932B0380932A038B81819570
:101550008A838A818093340380912A0390912B039C
:1015600090932D0380932C03E2E5F0E08A81808341
:1015700019C0E8E5F0E08081882F90E081709070DC
:101580000097B9F3A8E5B0E0E8E5F0E0808181607C
:101590008C9380912A0390912B03019790932B03B6
:1015A00080932A0380912A0390912B03009709F7D7
:1015B0008A85282F30E0C901880F991F880F991F4D
:1015C000820F931FFC01EA55FD4F908180E0692F47
:1015D0000E94460D19869EC08B859C85CC01A0E09B
:1015E000B0E0BC01CD010E94B106DC01CB01BC0121
:1015F000CD012D813E814F8158850E94CF058823E2
:101600000CF088C080E062E00E94460D8B859C85CE
:10161000CC01A0E0B0E020E83EE340E050E0BC01B7
:10162000CD010E94CD3A7B018C018A85282F30E0C4
:10163000C901880F991F880F991F820F931FFC0102
:10164000E855FD4F8081882F90E00197880F991F02
:10165000FC01E655FD4F808191819C0140E050E006
:10166000C801B7010E940C3BDA01C901898381E0FE
:1016700090E090932B0380932A03ECE5F0E08981BE
:1016800080832CC08A85282F30E0C901880F991FDC
:10169000880F991F820F931FFC01E855FD4F908121
:1016A00080E0692F0E94AB0DE8E5F0E0808186952F
:1016B000882F90E0817090700097B1F3A8E5B0E0BA
:1016C000E8E5F0E0808182608C9380912A0390911C
:1016D0002B03019790932B0380932A0380912A0375
:1016E00090912B03009771F68A85282F30E0C9016D
:1016F000880F991F880F991F820F931FFC01EA55CD
:10170000FD4F908180E0692F0E94460D198602C02E
:1017100082E0898789852E960FB6F894DEBF0FBECA
:10172000CDBFCF91DF911F910F91FF90EF90089562
:10173000DF93CF93CDB7DEB72A970FB6F894DEBF0D
:101740000FBECDBF8E8378876F8381E08D838E81BE
:10175000282F30E03A87298789859A85009731F0CC
:1017600029853A852130310559F008C02F81388507
:101770008E81B9010E94FD0E8D8302C082E08D83AF
:101780008D812A960FB6F894DEBF0FBECDBFCF91E4
:10179000DF910895DF93CF9300D000D000D0CDB774
:1017A000DEB78A837C836B8381E089838A81282FDB
:1017B00030E03E832D838D819E81009731F02D8115
:1017C0003E812130310569F00AC0ECE5F0E08B8103
:1017D0008083E2E5F0E081E08083198202C082E04C
:1017E0008983898126960FB6F894DEBF0FBECDBFE0
:1017F000CF91DF910895DF93CF9300D000D000D038
:10180000CDB7DEB78A837C836B8381E089838A814D
:10181000282F30E03E832D838D819E81009731F00B
:101820002D813E812130310599F019C08B819C8139
:10183000009759F0E2E5F0E08081882F90E0EB819D
:10184000FC819183808319820CC083E0898309C065
:101850008B819C81009729F483E0898302C082E018
:101860008983898126960FB6F894DEBF0FBECDBF5F
:10187000CF91DF910895DF93CF9300D0CDB7DEB73E
:101880008A8381E089838A816CE50E94A60E898320
:101890008981882379F48A81282F30E0C901880F53
:1018A000991F880F991F820F931FFC01E755FD4F69
:1018B0008CE5808389810F900F90CF91DF910895FF
:1018C000DF93CF9300D0CDB7DEB78A8381E08983E1
:1018D0008A816AE50E94A60E89838981882379F42A
:1018E0008A81282F30E0C901880F991F880F991F1E
:1018F000820F931FFC01E755FD4F8AE580838981A4
:101900000F900F90CF91DF910895DF93CF9300D088
:10191000CDB7DEB78A8381E089838A816BE50E9437
:10192000A60E89838981882379F48A81282F30E063
:10193000C901880F991F880F991F820F931FFC01FF
:10194000E755FD4F8BE5808389810F900F90CF91F4
:10195000DF910895DF93CF9300D0CDB7DEB78A83B0
:1019600081E089838A816AE50E94A60E8983898144
:10197000882379F48A81282F30E0C901880F991FC4
:10198000880F991F820F931FFC01E755FD4F8AE5D1
:10199000808389810F900F90CF91DF910895DF931D
:1019A000CF9300D0CDB7DEB78A8381E089838A8167
:1019B0006AE50E94A60E89838981882379F48A8149
:1019C000282F30E0C901880F991F880F991F820FB7
:1019D000931FFC01E755FD4F8AE5808389810F90B5
:1019E0000F90CF91DF910895DF93CF9300D0CDB7C3
:1019F000DEB78A8381E089838A8160E00E94AB0D33
:101A000089838981882371F48A81282F30E0C90174
:101A1000880F991F880F991F820F931FFC01E855AB
:101A2000FD4F108289810F900F90CF91DF91089523
:101A3000DF93CF9300D000D00F92CDB7DEB79B835A
:101A40008A837D836C8381E089838A819B8100976F
:101A500091F08C819D81009771F08A819B81909398
:101A60002703809326038C819D8190932903809383
:101A70002803198202C083E0898389810F900F9027
:101A80000F900F900F90CF91DF910895DF93CF9338
:101A900000D000D00F92CDB7DEB78A836B8381E090
:101AA00089838A81282F30E03D832C838C819D811E
:101AB0008130910509F446C02C813D8122303105E9
:101AC00009F440C08C819D810097D1F5A3E5B0E079
:101AD000E3E5F0E08081877B8C938B81882349F458
:101AE000A3E5B0E0E3E5F0E08081877B8C93198289
:101AF00029C08B81813049F4A3E5B0E0E3E5F0E053
:101B0000808180648C9319821DC08B81823049F45E
:101B1000A3E5B0E0E3E5F0E0808188608C93198272
:101B200011C08B81833049F4A3E5B0E0E3E5F0E038
:101B3000808188648C93198205C082E0898302C009
:101B400082E0898389810F900F900F900F900F9002
:101B5000CF91DF910895DF93CF9300D000D00F9203
:101B6000CDB7DEB78A836B8381E089838A81282F92
:101B700030E03D832C838C819D818130910509F477
:101B800077C02C813D812230310509F471C08C81F0
:101B90009D81009709F06AC0A3E5B0E0E3E5F0E0BD
:101BA0008081887F8C938B81882349F4A3E5B0E002
:101BB000E3E5F0E08081887F8C93198259C08B81A6
:101BC000813049F4A3E5B0E0E3E5F0E08081816095
:101BD0008C9319824DC08B81823049F4A3E5B0E02B
:101BE000E3E5F0E0808182608C93198241C08B81B3
:101BF000833049F4A3E5B0E0E3E5F0E08081836061
:101C00008C93198235C08B81843049F4A3E5B0E010
:101C1000E3E5F0E0808184608C93198229C08B8198
:101C2000853049F4A3E5B0E0E3E5F0E0808185602C
:101C30008C9319821DC08B81863049F4A3E5B0E0F6
:101C4000E3E5F0E0808186608C93198211C08B817E
:101C5000873049F4A3E5B0E0E3E5F0E080818760F8
:101C60008C93198205C082E0898302C082E0898357
:101C700089810F900F900F900F900F90CF91DF916F
:101C80000895DF93CF9300D000D00F92CDB7DEB789
:101C90008A836B8381E089838A81282F30E03D83AA
:101CA0002C838C819D818130910509F446C02C8163
:101CB0003D812230310509F440C08C819D8100971F
:101CC000D1F5A3E5B0E0E3E5F0E080818F7C8C9373
:101CD0008B81882349F4A3E5B0E0E3E5F0E080815F
:101CE0008F7C8C93198229C08B81813049F4A3E5C4
:101CF000B0E0E3E5F0E0808180618C9319821DC043
:101D00008B81823049F4A3E5B0E0E3E5F0E0808127
:101D100080628C93198211C08B81833049F4A3E5D2
:101D2000B0E0E3E5F0E0808180638C93198205C028
:101D300082E0898302C082E0898389810F900F90BD
:101D40000F900F900F90CF91DF910895DF93CF9375
:101D500000D000D00F92CDB7DEB78A836B8381E0CD
:101D600089838A81282F30E03D832C838C819D815B
:101D700081309105C9F12C813D8122303105A1F1DD
:101D80008C819D81009771F5A9E5B0E0E9E5F0E06F
:101D900080818C7F8C938B818A3549F4A9E5B0E0F2
:101DA000E9E5F0E080818C7F8C9319821DC08B81E6
:101DB0008B3549F4A9E5B0E0E9E5F0E08081816088
:101DC0008C93198211C08B818C3549F4A9E5B0E060
:101DD000E9E5F0E0808182608C93198205C082E0A1
:101DE000898302C082E0898389810F900F900F90D0
:101DF0000F900F90CF91DF910895EF92FF920F9384
:101E00001F93DF93CF93CDB7DEB762970FB6F894E9
:101E1000DEBF0FBECDBF8E87788B6F8781E08D8749
:101E20008E85282F30E03A8B298B49895A89413099
:101E3000510509F4C0C189899A898230910509F454
:101E4000BAC129893A892115310509F0B2C18091B9
:101E5000A602882309F00CC18E85282F30E0C90125
:101E6000880F991F880F991F820F931FFC01E85557
:101E7000FD4F8081882F90E00197880F991FFC010A
:101E8000E655FD4F80819181CC01A0E0B0E0BC011E
:101E9000CD010E94B106DC01CB01BC01CD0120E0E7
:101EA00030E040E853E40E949903DC01CB01BC011F
:101EB000CD0120E030E04AE756E40E949304DC01C3
:101EC000CB0189879A87AB87BC878F859889CC019E
:101ED000A0E0B0E0BC01CD010E94B106DC01CB0165
:101EE000BC01CD0129853A854B855C850E949F0503
:101EF00088230CF462C083E067E041E00E944A144A
:101F000083E067E041E00E94361580E060E00E94D7
:101F1000460D8F859889CC01A0E0B0E020E83EE333
:101F200040E050E0BC01CD010E94CD3A7B018C0124
:101F30008E85282F30E0C901880F991F880F991FBF
:101F4000820F931FFC01E855FD4F8081882F90E0A0
:101F50000197880F991FFC01E655FD4F8081918103
:101F60009C0140E050E0C801B7010E940C3BDA013F
:101F7000C90198878F838F81988581509F4F892FC2
:101F8000992790932B0380932A038F8181958E83C9
:101F90008E818093340380912A0390912B03909338
:101FA0002D0380932C03E2E5F0E08E8180831D8673
:101FB0008E856BE50E94A60EFEC08F859889CC01A8
:101FC000A0E0B0E0BC01CD010E94B106DC01CB0174
:101FD000BC01CD0129853A854B855C850E94CF05E2
:101FE00088230CF0E8C080E062E00E94460D8F85F7
:101FF0009889CC01A0E0B0E020E83EE340E050E06A
:10200000BC01CD010E94CD3A7B018C018E85282F29
:1020100030E0C901880F991F880F991F820F931F05
:10202000FC01E855FD4F8081882F90E00197880FD3
:10203000991FFC01E655FD4F808191819C0140E094
:1020400050E0C801B7010E940C3BDA01C9018D8341
:1020500081E090E090932B0380932A03ECE5F0E07D
:102060008D8180831D868E856CE50E94A60EA3C09F
:102070008091A602823009F09EC080E062E00E945A
:10208000460D8E85282F30E0C901880F991F880FD3
:10209000991F820F931FFC01E855FD4F8081882F07
:1020A00090E00197880F991FFC01E655FD4F808154
:1020B0009181CC01A0E0B0E0BC01CD010E94B1064D
:1020C000DC01CB01BC01CD0120E030E040E853E46D
:1020D0000E949903DC01CB01BC01CD0120E030E07E
:1020E0004AE756E40E949304DC01CB0189839A837A
:1020F000AB83BC8369817A818B819C810E94C301FF
:10210000DC01CB01282F30E080E89EE3AC01249F66
:10211000C001259F900D349F900D1124AC018E8538
:10212000282F30E0C901880F991F880F991F820F4F
:10213000931FFC01E855FD4F8081882F90E00197A7
:10214000880F991FFC01E655FD4F20813181CA019E
:10215000B9010E94F83ACB0190932F0380932E038C
:1021600069817A818B819C810E94C301DC01CB0152
:10217000282F30E08F859889B9010E94F83ACB0169
:102180009093310380933003809130039091310319
:102190009093330380933203ECE5F0E080912E03BB
:1021A00090912F0380831D868E856CE50E94A60E7C
:1021B00002C082E08D878D8562960FB6F894DEBFEF
:1021C0000FBECDBFCF91DF911F910F91FF90EF9088
:1021D00008951F920F920FB60F9211242F933F93E1
:1021E0004F935F936F937F938F939F93AF93BF931F
:1021F000EF93FF93DF93CF93CDB7DEB7809130039A
:102200009091310301979093310380933003809133
:102210003003909131030097D9F4E0912603F091B7
:1022200027038091280390912903099582E067E0B4
:102230000E942D16809132039091330390933103C5
:10224000809330039091A60280E0692F0E94460D92
:10225000CF91DF91FF91EF91BF91AF919F918F91BE
:102260007F916F915F914F913F912F910F900FBE92
:102270000F901F9018951F920F920FB60F92112476
:102280002F933F934F935F936F937F938F939F937E
:10229000AF93BF93EF93FF93DF93CF93CDB7DEB7A9
:1022A00083E066E00E942D1680912A0390912B0313
:1022B000019790932B0380932A0380912A03909196
:1022C0002B03009769F4E0912603F0912703809196
:1022D000280390912903099582E067E00E942D165A
:1022E000CF91DF91FF91EF91BF91AF919F918F912E
:1022F0007F916F915F914F913F912F910F900FBE02
:102300000F901F901895DF93CF93CDB7DEB7AFE551
:10231000B0E0EFE5F0E0808180688C93CF91DF91B1
:102320000895DF93CF93CDB7DEB7AFE5B0E0EFE52B
:10233000F0E080818F778C93CF91DF910895DF93C8
:10234000CF9300D0CDB7DEB781E08A8319823BC03E
:102350008981282F30E0C901880F991F820F931FB0
:10236000FC01EB54FD4F40818981282F30E0C901E9
:10237000880F991F820F931FFC01EA54FD4F908133
:10238000842F692F0E946C128981282F30E0C901A7
:10239000880F991F820F931FFC01EB54FD4F408162
:1023A0008981282F30E0C901880F991F820F931F60
:1023B000FC01E954FD4F9081842F692F0E942A135C
:1023C00089818F5F89839091B4028981891708F48C
:1023D000BFCF8A810F900F90CF91DF910895DF9347
:1023E000CF9300D00F92CDB7DEB78A836B8381E0A5
:1023F00089838A816B810E946C12898389810F9005
:102400000F900F90CF91DF910895DF93CF9300D07D
:10241000CDB7DEB78A8381E089838A8160E50E9437
:102420006C12898389810F900F90CF91DF9108956D
:10243000DF93CF9300D0CDB7DEB78A8381E0898365
:102440008A816AE50E946C12898389810F900F90BE
:10245000CF91DF910895DF93CF9300D000D000D0CB
:10246000CDB7DEB78A837C836B835E834D8381E047
:1024700089838B819C81009719F18D819E810097C2
:10248000F9F08A818330C8F48A81882F90E02B810B
:102490003C81880F991FFC01EB5CFC4F318320834A
:1024A0008A81882F90E0880F991FFC01E55CFC4F22
:1024B0008D819E819183808305C082E0898302C0E3
:1024C00083E08983898126960FB6F894DEBF0FBE1C
:1024D000CDBFCF91DF910895DF93CF9300D000D08F
:1024E0000F92CDB7DEB78A836B8381E089838A81BF
:1024F000282F30E03D832C838C819D818130910594
:1025000009F44AC02C813D812230310509F482C092
:102510008C819D81009709F094C08B818A3049F4A9
:10252000A5E5B0E0E5E5F0E080818C7F8C93198231
:1025300088C08B818B3081F4A5E5B0E0E5E5F0E063
:1025400080818C7F8C93A5E5B0E0E5E5F0E08081AB
:1025500081608C93198275C08B818C3081F4A5E5E4
:10256000B0E0E5E5F0E080818C7F8C93A5E5B0E0FC
:10257000E5E5F0E0808182608C93198262C08B81F6
:102580008D3009F05EC0A5E5B0E0E5E5F0E08081C2
:1025900083608C93198255C08B818A3049F4A5E5FC
:1025A000B0E0E5E5F0E08081837F8C93198249C03B
:1025B0008B818B3081F4A5E5B0E0E5E5F0E080812A
:1025C000837F8C93A5E5B0E0E5E5F0E08081846051
:1025D0008C93198236C08B818C3081F4A5E5B0E0F4
:1025E000E5E5F0E08081837F8C93A5E5B0E0E5E54B
:1025F000F0E0808188608C93198223C08B818D30BC
:1026000001F5A5E5B0E0E5E5F0E080818C608C9314
:10261000198217C08B818C3049F4A4E5B0E0E4E561
:10262000F0E080818F7B8C9319820BC08B818D3081
:1026300041F4A4E5B0E0E4E5F0E0808180648C93AF
:10264000198289810F900F900F900F900F90CF916A
:10265000DF910895DF93CF9300D000D00F92CDB7D4
:10266000DEB78A836B8381E089838A81282F30E0FB
:102670003D832C838C819D818130910511F12C81CA
:102680003D8122303105A9F18C819D81009709F0AF
:1026900047C08B81803549F4ABE5B0E0EBE5F0E075
:1026A000808180648C9319823BC08B818A35C1F50F
:1026B000ABE5B0E0EBE5F0E080818F7B8C93198295
:1026C0002FC08B81803549F4ABE5B0E0EBE5F0E05D
:1026D000808180688C93198223C08B818A3501F5B3
:1026E000ABE5B0E0EBE5F0E080818F778C93198269
:1026F00017C08B81803549F4ABE5B0E0EBE5F0E045
:10270000808180628C9319820BC08B818A3541F461
:10271000ABE5B0E0EBE5F0E080818F7D8C93198232
:1027200089810F900F900F900F900F90CF91DF91B4
:1027300008951F920F920FB60F9211242F933F937B
:102740004F935F936F937F938F939F93AF93BF93B9
:10275000EF93FF93DF93CF93CDB7DEB7809135032F
:1027600090913603009749F0E0913503F0913603DC
:1027700080913B0390913C030995CF91DF91FF91AC
:10278000EF91BF91AF919F918F917F916F915F91E9
:102790004F913F912F910F900FBE0F901F90189562
:1027A0001F920F920FB60F9211242F933F934F93C6
:1027B0005F936F937F938F939F93AF93BF93EF93A9
:1027C000FF93DF93CF93CDB7DEB78091370390911E
:1027D0003803009749F0E0913703F0913803809176
:1027E0003D0390913E030995CF91DF91FF91EF91C9
:1027F000BF91AF919F918F917F916F915F914F9119
:102800003F912F910F900FBE0F901F9018951F9220
:102810000F920FB60F9211242F933F934F935F9314
:102820006F937F938F939F93AF93BF93EF93FF9398
:10283000DF93CF93CDB7DEB78091390390913A0300
:10284000009749F0E0913903F0913A0380913F03FA
:10285000909140030995CF91DF91FF91EF91BF9146
:10286000AF919F918F917F916F915F914F913F9128
:102870002F910F900FBE0F901F901895DF93CF935D
:102880000F92CDB7DEB781E0898389810F90CF9118
:10289000DF910895DF93CF9300D000D000D0CDB763
:1028A000DEB78A836B834C8381E089838A8184309D
:1028B00008F0D0C08B81883008F0CCC08C81823089
:1028C00008F0C8C08A81282F30E03E832D836D81B7
:1028D0007E816130710509F441C08D819E81823015
:1028E000910534F42D813E812115310571F0B0C080
:1028F0006D817E816230710509F459C08D819E81A0
:102900008330910509F47CC0A3C0AAE3B0E0EAE3F8
:10291000F0E08081482F8B81282F30E081E090E02B
:1029200002C0880F991F2A95E2F7809584238C9323
:10293000AAE3B0E0EAE3F0E08081482F8C81282F01
:1029400030E08B81882F90E0B90102C0660F771FBD
:102950008A95E2F7CB01842B8C937AC0A7E3B0E091
:10296000E7E3F0E08081482F8B81282F30E081E081
:1029700090E002C0880F991F2A95E2F78095842382
:102980008C93A7E3B0E0E7E3F0E08081482F8C81EF
:10299000282F30E08B81882F90E0B90102C0660FAC
:1029A000771F8A95E2F7CB01842B8C9351C0A4E367
:1029B000B0E0E4E3F0E08081482F8B81282F30E005
:1029C00081E090E002C0880F991F2A95E2F7809578
:1029D00084238C93A4E3B0E0E4E3F0E08081482F0B
:1029E0008C81282F30E08B81882F90E0B90102C0C4
:1029F000660F771F8A95E2F7CB01842B8C9328C052
:102A0000A1E3B0E0E1E3F0E08081482F8B81282F43
:102A100030E081E090E002C0880F991F2A95E2F72C
:102A2000809584238C93A1E3B0E0E1E3F0E0808122
:102A3000482F8C81282F30E08B81882F90E0B901BE
:102A400002C0660F771F8A95E2F7CB01842B8C9327
:102A5000198202C082E08983898126960FB6F89494
:102A6000DEBF0FBECDBFCF91DF910895DF93CF932F
:102A700000D000D000D0CDB7DEB78A836B834C8303
:102A800081E089838A81843008F0DBC08B818830C3
:102A900008F0D7C08C81823008F0D3C08A81282FFB
:102AA00030E03E832D838D819E818130910509F434
:102AB00043C02D813E81223031052CF48D819E81D1
:102AC000009771F0BCC02D813E812230310509F4A0
:102AD0005FC08D819E818330910509F485C0AFC0B0
:102AE0008C818130A1F4ABE3B0E0EBE3F0E08081D6
:102AF000482F8B81282F30E081E090E0022E02C029
:102B0000880F991F0A94E2F7842B8C9398C0ABE34B
:102B1000B0E0EBE3F0E08081482F8B81282F30E09C
:102B200081E090E0022E02C0880F991F0A94E2F71C
:102B3000809584238C9383C08C818130A1F4A8E399
:102B4000B0E0E8E3F0E08081482F8B81282F30E06F
:102B500081E090E0022E02C0880F991F0A94E2F7EC
:102B6000842B8C936CC0A8E3B0E0E8E3F0E08081B4
:102B7000482F8B81282F30E081E090E0022E02C0A8
:102B8000880F991F0A94E2F7809584238C9357C08D
:102B90008C818130A1F4A5E3B0E0E5E3F0E0808131
:102BA000482F8B81282F30E081E090E0022E02C078
:102BB000880F991F0A94E2F7842B8C9340C0A5E3F9
:102BC000B0E0E5E3F0E08081482F8B81282F30E0F2
:102BD00081E090E0022E02C0880F991F0A94E2F76C
:102BE000809584238C932BC08C818130A1F4A2E347
:102BF000B0E0E2E3F0E08081482F8B81282F30E0C5
:102C000081E090E0022E02C0880F991F0A94E2F73B
:102C1000842B8C9314C0A2E3B0E0E2E3F0E0808167
:102C2000482F8B81282F30E081E090E0022E02C0F7
:102C3000880F991F0A94E2F7809584238C93198258
:102C400002C082E08983898126960FB6F894DEBFA0
:102C50000FBECDBFCF91DF910895DF93CF9300D00A
:102C600000D00F92CDB7DEB78A836B8381E0898372
:102C70008A81843008F074C08B81883008F070C07D
:102C80008A81282F30E03D832C838C819D81813087
:102C9000910549F12C813D81223031052CF48C8144
:102CA0009D81009761F05AC02C813D812230310511
:102CB00071F18C819D8183309105E9F14FC0ABE3C7
:102CC000B0E0EBE3F0E08081482F8B81282F30E0EB
:102CD00081E090E0022E02C0880F991F0A94E2F76B
:102CE00084278C933BC0A8E3B0E0E8E3F0E0808168
:102CF000482F8B81282F30E081E090E0022E02C027
:102D0000880F991F0A94E2F784278C9327C0A5E3C4
:102D1000B0E0E5E3F0E08081482F8B81282F30E0A0
:102D200081E090E0022E02C0880F991F0A94E2F71A
:102D300084278C9313C0A2E3B0E0E2E3F0E080814B
:102D4000482F8B81282F30E081E090E0022E02C0D6
:102D5000880F991F0A94E2F784278C93198202C086
:102D600082E0898389810F900F900F900F900F90D0
:102D7000CF91DF910895DF93CF93CDB7DEB727973B
:102D80000FB6F894DEBF0FBECDBF8A836B835D8321
:102D90004C8381E089838C819D81009709F47DC0FB
:102DA0008A81843008F076C08B81883008F072C048
:102DB0008A81282F30E03F832E834E815F8141300E
:102DC000510559F18E819F818230910534F42E8115
:102DD0003F812115310569F05BC04E815F81423032
:102DE000510579F18E819F818330910509F43DC0B1
:102DF0004FC0E9E3F0E08081282F30E08B81882FFD
:102E000090E0A90102C0559547958A95E2F7CA015D
:102E10008170EC81FD8180833BC0E6E3F0E080813E
:102E2000282F30E08B81882F90E0A90102C05595B2
:102E300047958A95E2F7CA018170EC81FD81808314
:102E400027C0E3E3F0E08081282F30E08B81882FDA
:102E500090E0A90102C0559547958A95E2F7CA010D
:102E60008170EC81FD81808313C0E0E3F0E080811C
:102E7000282F30E08B81882F90E0A90102C0559562
:102E800047958A95E2F7CA018170EC81FD818083C4
:102E9000198205C082E0898302C083E08983898129
:102EA00027960FB6F894DEBF0FBECDBFCF91DF914E
:102EB0000895DF93CF930F92CDB7DEB71982A6E2C4
:102EC000B0E0E6E2F0E080818F778C93A7E2B0E09B
:102ED000E7E2F0E080818F738C93A7E2B0E0E7E255
:102EE000F0E080818F7D8C93A7E2B0E0E7E2F0E034
:102EF000808180628C93A7E2B0E0E7E2F0E080811D
:102F0000807E8C93A7E2B0E0E7E2F0E08081816010
:102F10008C93A6E2B0E0E6E2F0E08081887F8C93BB
:102F2000A6E2B0E0E6E2F0E0808186608C93A6E263
:102F3000B0E0E6E2F0E08081877F8C93A6E2B0E02B
:102F4000E6E2F0E080818C93A0E5B0E0E0E5F0E01F
:102F500080818F718C93A6E2B0E0E6E2F0E08081A0
:102F60008F7D8C93A6E2B0E0E6E2F0E0808180689D
:102F70008C93198289810F90CF91DF910895DF930F
:102F8000CF9300D000D0CDB7DEB78A837C836B832C
:102F900081E089838B819C81009709F462C08A81DA
:102FA000803208F05BC0A6E2B0E0E6E2F0E08081AB
:102FB00080618C93A6E2B0E0E6E2F0E0808180647C
:102FC0008C93A7E2B0E0E7E2F0E08081807E8C9312
:102FD000A7E2B0E0E7E2F0E090818A81892B8C9350
:102FE000E6E2F0E0808182958F70882F90E081701A
:102FF00090700097A9F3EB81FC8111821082EB8124
:10300000FC8120813181E4E2F0E080818295869527
:1030100086958370882F90E0822B932BEB81FC8127
:1030200091838083EB81FC8120813181E5E2F0E0B6
:103030008081882F90E0880F991F880F991F822B1D
:10304000932BEB81FC81918380831982A6E2B0E00F
:10305000E6E2F0E0808180618C9305C082E08983A4
:1030600002C083E0898389810F900F900F900F90A9
:10307000CF91DF910895DF93CF930F92CDB7DEB755
:1030800081E08983A6E2B0E0E6E2F0E080818F7B18
:103090008C93A6E2B0E0E6E2F0E0808180648C935D
:1030A00089810F90CF91DF910895DF93CF9300D066
:1030B000CDB7DEB78A8381E089838A81803288F444
:1030C000A7E2B0E0E7E2F0E08081807E8C93A7E2A7
:1030D000B0E0E7E2F0E090818A81892B8C9319823D
:1030E00002C082E0898389810F900F90CF91DF9198
:1030F0000895DF93CF9300D00F92CDB7DEB79B83B7
:103100008A8381E089838A819B81009761F1EA81CA
:10311000FB8111821082EA81FB8120813181E4E20E
:10312000F0E080818295869586958370882F90E067
:10313000822B932BEA81FB8191838083EA81FB813F
:1031400020813181E5E2F0E08081882F90E0880FD6
:10315000991F880F991F822B932BEA81FB81918302
:103160008083198202C083E0898389810F900F9048
:103170000F90CF91DF910895DF93CF9300D00F92FE
:10318000CDB7DEB79B838A8381E089838A819B8167
:10319000009779F0EA81FB811082EA81FB819081BE
:1031A000E5E2F0E08081892BEA81FB81808319824E
:1031B00002C083E0898389810F900F900F90CF9197
:1031C000DF910895DF93CF9300D0CDB7DEB78A8328
:1031D00081E089838A81883050F5A6E2B0E0E6E29A
:1031E000F0E080818F7D8C93A0E5B0E0E0E5F0E039
:1031F00080818F718C93A0E5B0E0E0E5F0E0808104
:10320000282F8A81882F90E0880F991F82959295A8
:10321000907F9827807F9827822B8C93A6E2B0E03E
:10322000E6E2F0E0808180628C93198202C082E045
:10323000898389810F900F90CF91DF910895DF935B
:10324000CF930F92CDB7DEB781E08983A6E2B0E0DD
:10325000E6E2F0E080818F7D8C9389810F90CF91A1
:10326000DF910895DF93CF9300D00F92CDB7DEB7F3
:103270008A836B8381E089838A81803230F5A7E27B
:10328000B0E0E7E2F0E08081807E8C93A7E2B0E0DE
:10329000E7E2F0E090818A81892B8C938B818730E3
:1032A00088F4A6E2B0E0E6E2F0E08081887F8C93CB
:1032B000A6E2B0E0E6E2F0E090818B81892B8C936E
:1032C000198205C082E0898302C082E089838981F6
:1032D0000F900F900F90CF91DF910895DF93CF93D0
:1032E00000D00F92CDB7DEB78A836B8381E08983EC
:1032F0008A81803290F5A7E2B0E0E7E2F0E08081D9
:10330000807E8C93A7E2B0E0E7E2F0E090818A81D2
:10331000892B8C938B81882319F08B818130D1F498
:10332000A6E2B0E0E6E2F0E08081877F8C93A6E23F
:10333000B0E0E6E2F0E08081282F8B81882F90E0DA
:10334000880F991F880F991F880F991F822B8C93C4
:10335000198205C082E0898302C082E08983898165
:103360000F900F900F90CF91DF910895DF93CF933F
:103370000F92CDB7DEB781E08983A6E2B0E0E6E246
:10338000F0E0808188608C9389810F90CF91DF91EC
:103390000895DF93CF930F92CDB7DEB781E0898395
:1033A000A6E2B0E0E6E2F0E08081877F8C9389813D
:1033B0000F90CF91DF910895DF93CF930F92CDB708
:1033C000DEB781E08983A6E2B0E0E6E2F0E080814A
:1033D00080688C9389810F90CF91DF910895DF935E
:1033E000CF930F92CDB7DEB781E08983A6E2B0E03C
:1033F000E6E2F0E080818F778C9389810F90CF9106
:10340000DF910895DF93CF9300D000D00F92CDB716
:10341000DEB79B838A837D836C8381E089838A8185
:103420009B81009789F08C819D81009769F08A814A
:103430009B8190934203809341038C819D81909363
:1034400044038093430302C083E0898389810F9002
:103450000F900F900F900F90CF91DF9108951F92D2
:103460000F920FB60F9211242F933F934F935F93B8
:103470006F937F938F939F93AF93BF93EF93FF933C
:10348000DF93CF93CDB7DEB7E0914103F0914203D4
:1034900080914303909144030995CF91DF91FF916F
:1034A000EF91BF91AF919F918F917F916F915F91BC
:1034B0004F913F912F910F900FBE0F901F90189535
:1034C000DF93CF9300D0CDB7DEB781E08A83198236
:1034D00024C08981282F30E0C901880F991F820FED
:1034E000931FFC01E154FD4F40818981282F30E07A
:1034F000C901880F991F820F931FFC01E054FD4FF3
:103500009081842F692F40E00E944A148A838A8127
:10351000882341F489818F5F89839091BE028981DC
:103520008917B8F28A810F900F90CF91DF9108959B
:10353000DF93CF9300D000D0CDB7DEB78A837C83F2
:103540006B8381E089838B819C81009749F1909105
:10355000BE028A81891708F58A81282F30E0C901C7
:10356000880F991F820F931FFC01E154FD4F40818A
:103570008A81282F30E0C901880F991F820F931F7D
:10358000FC01E054FD4F90812B813C81842F692FF9
:10359000A9010E94BB16898305C082E0898302C00D
:1035A00082E0898389810F900F900F900F90CF91C7
:1035B000DF910895DF93CF9300D0CDB7DEB781E0E0
:1035C0008A83198251C08981282F30E0C901880F70
:1035D000991F820F931FFC01E753FD4F40818981A2
:1035E000282F30E0C901880F991F820F931FFC011B
:1035F000E653FD4F9081842F692F41E00E944A14C9
:103600008A838A818823B1F58981282F30E0C90116
:10361000880F991F820F931FFC01E753FD4F5081C4
:103620008981282F30E0C901880F991F820F931FCD
:10363000FC01E653FD4F40818981282F30E0C9010C
:10364000880F991F820F931FFC01E553FD4F908156
:10365000852F642F492F0E9436158A838A818823FB
:1036600049F489818F5F89839091C8028981891784
:1036700008F4A9CF8A810F900F90CF91DF91089520
:10368000DF93CF9300D0CDB7DEB78A8381E0898303
:103690009091C8028A818917F8F48A81282F30E036
:1036A000C901880F991F820F931FFC01E753FD4F3B
:1036B00040818A81282F30E0C901880F991F820F2D
:1036C000931FFC01E653FD4F9081842F692F41E049
:1036D0000E943615898302C082E0898389810F9018
:1036E0000F90CF91DF910895DF93CF9300D0CDB7A6
:1036F000DEB78A8381E089839091C8028A81891725
:10370000F8F48A81282F30E0C901880F991F820FB1
:10371000931FFC01E753FD4F40818A81282F30E041
:10372000C901880F991F820F931FFC01E653FD4FBB
:103730009081842F692F40E00E943615898302C052
:1037400082E0898389810F900F90CF91DF91089556
:10375000DF93CF9300D0CDB7DEB78A8381E0898332
:103760009091C8028A818917F0F48A81282F30E06D
:10377000C901880F991F820F931FFC01E753FD4F6A
:1037800040818A81282F30E0C901880F991F820F5C
:10379000931FFC01E653FD4F9081842F692F0E94F7
:1037A0002D16898302C082E0898389810F900F9052
:1037B000CF91DF910895DF93CF93CDB7DEB76D97AB
:1037C0000FB6F894DEBF0FBECDBF81E08D8F80E0D5
:1037D00090E0ACE0B2E4898F9A8FAB8FBC8F698D9B
:1037E0007A8D8B8D9C8D20E030E04AE755E40E9475
:1037F0009903DC01CB018D8B9E8BAF8BB88F6D89CC
:103800007E898F89988D20E030E040E85FE30E9458
:10381000CF0588232CF481E090E09C8B8B8B3FC0FC
:103820006D897E898F89988D20E03FEF4FE757E4BF
:103830000E946F0518164CF5698D7A8D8B8D9C8DC5
:1038400020E030E040E251E40E949903DC01CB012A
:10385000BC01CD010E94C301DC01CB019C8B8B8B91
:103860000FC080E991E09A8B898B89899A890197A9
:10387000F1F79A8B898B8B899C8901979C8B8B8B19
:103880008B899C89009769F714C06D897E898F891F
:10389000988D0E94C301DC01CB019C8B8B8B8B89A3
:1038A0009C89988B8F878F8598890197F1F7988BE2
:1038B0008F8781E061E041E00E944A1481E062E08C
:1038C00041E00E944A1481E063E041E00E944A1412
:1038D00080E067E041E00E944A1480E066E041E059
:1038E0000E944A1480E065E041E00E944A1480E0B2
:1038F00064E041E00E944A1480E067E040E00E94FA
:10390000361580E066E040E00E94361580E065E014
:1039100041E00E94361580E064E040E00E943615E8
:1039200081E063E041E00E94361580E090E0A0E88D
:10393000BFE38B879C87AD87BE876B857C858D8534
:103940009E8520E030E04AE755E40E949903DC01BF
:10395000CB018F839887A987BA876F8178858985FE
:103960009A8520E030E040E85FE30E94CF0588239D
:103970002CF481E090E09E838D833FC06F81788539
:1039800089859A8520E03FEF4FE757E40E946F0555
:1039900018164CF56B857C858D859E8520E030E082
:1039A00040E251E40E949903DC01CB01BC01CD014E
:1039B0000E94C301DC01CB019E838D830FC080E98F
:1039C00091E09C838B838B819C810197F1F79C8391
:1039D0008B838D819E8101979E838D838D819E81B6
:1039E000009769F714C06F81788589859A850E9450
:1039F000C301DC01CB019E838D838D819E819A83DF
:103A0000898389819A810197F1F79A83898381E07B
:103A100063E040E00E94361581E061E040E00E94F2
:103A2000361588E20E94322081E061E040E00E9489
:103A300036158FE00E94322081E061E040E00E9474
:103A4000361581E00E94322081E061E040E00E9472
:103A5000361586E00E9432208D8D6D960FB6F89453
:103A6000DEBF0FBECDBFCF91DF910895DF93CF931F
:103A700000D0CDB7DEB78A8381E0898381E061E041
:103A800040E00E94361589838981882321F48A8148
:103A90000E943220898389810F900F90CF91DF910E
:103AA0000895DF93CF9300D0CDB7DEB78A8381E04E
:103AB000898381E061E041E00E9436158983898134
:103AC000882321F48A810E943220898389810F9082
:103AD0000F90CF91DF910895DF93CF9300D000D066
:103AE0000F92CDB7DEB79D838C8381E089831B82E3
:103AF0001A8212C081E061E041E00E9436158A839B
:103B0000EC81FD8120818C819D8101969D838C8338
:103B1000822F0E9432208B83EC81FD81808188235B
:103B200049F789810F900F900F900F900F90CF91D0
:103B3000DF910895DF93CF9300D00F92CDB7DEB71A
:103B40008A836B8381E089838A81882311F18A814A
:103B50008330F8F48B818823E1F08B818131C8F4C4
:103B600081E061E040E00E9436158A81882F90E074
:103B700001960024969587950794969587950794C6
:103B8000982F802D982F8B81890F81500E94322091
:103B900002C082E0898389810F900F900F90CF91AE
:103BA000DF910895EF920F93DF93CF93CDB7DEB7F8
:103BB00029970FB6F894DEBF0FBECDBF9C838B83D1
:103BC0006D834E832F830887E98681E08A838B810A
:103BD0009C81009709F46FC08D81883008F068C01F
:103BE0008E81893708F064C08E81803408F460C00B
:103BF0008F81882309F45CC08F81833008F058C01E
:103C00008885882309F454C08885813108F050C024
:103C10008985843021F08985863009F049C081E0AA
:103C200061E040E00E9436158E810E9432201982A8
:103C300013C081E061E041E00E943615EB81FC8118
:103C400020818B819C8101969C838B83822F0E9493
:103C5000322089818F5F89838981883050F381E0A8
:103C600061E040E00E9436158F81882F90E0019638
:103C70000024969587950794969587950794982F95
:103C8000802D982F8885890F81500E94322081E0F5
:103C900061E040E00E94361589850E94322081E073
:103CA00061E041E00E9436158D810E94322005C0FE
:103CB00082E08A8302C083E08A838A8129960FB6D4
:103CC000F894DEBF0FBECDBFCF91DF910F91EF9083
:103CD0000895DF93CF9300D000D0CDB7DEB76983CE
:103CE0007A838B839C8389819A81AB81BC81BC015F
:103CF000CD010E94FE1E0F900F900F900F90CF915C
:103D0000DF910895DF93CF93CDB7DEB72B970FB632
:103D1000F894DEBF0FBECDBF6F83788789879A87FF
:103D200081E08E836F81788589859A850E945D0602
:103D3000DC01CB01BC01CD010E94FF059B01AC0160
:103D40006F81788589859A850E943B03DC01CB01D0
:103D50008A839B83AC83BD836F81788589859A85AF
:103D60000E945D06DC01CB01BC01CD010E94FE1E5C
:103D70001B866A817B818C819D8120E030E040E060
:103D800050E00E943F05882311F481E08B8781E099
:103D90009B858927882341F18EE20E94511D81E095
:103DA000898313C06A817B818C819D8120E030E012
:103DB00040E251E40E949903DC01CB018A839B839A
:103DC000AC83BD838981815089838981882351F7A0
:103DD0006A817B818C819D810E945D06DC01CB0123
:103DE000BC01CD010E94FE1E8E812B960FB6F89469
:103DF000DEBF0FBECDBFCF91DF910895DF93CF938C
:103E0000CDB7DEB7A7970FB6F894DEBF0FBECDBF14
:103E10006CA37DA38EA39FA381E08A8381E2FE0130
:103E20003396DF01982F1D929A95E9F719828CA19C
:103E30009DA1AEA1BFA19E012D5F3F4FBC01CD0151
:103E4000A9010E94561F8A838A81882329F519C0F7
:103E500081E061E041E00E9436158A838A818823EF
:103E6000D9F48981282F30E0CE010396FC01E20FBE
:103E7000F31F908189818F5F8983892F0E9432206F
:103E80008A838981282F30E0CE010396FC01E20F5E
:103E9000F31F80818823E1F68A81A7960FB6F894F4
:103EA000DEBF0FBECDBFCF91DF9108950F931F935B
:103EB000DF93CF93CDB7DEB72C970FB6F894DEBF64
:103EC0000FBECDBF6F83788789879A875C874B87C2
:103ED00081E08E838B859C85009709F4B5C01D8297
:103EE0001C828F819885A985BA85BB238CF481E0DB
:103EF0008C838F819885A985BA85B095A09590957A
:103F000081959F4FAF4FBF4F8F839887A987BA87FF
:103F10008F819885A985BA850097A105B105E1F53E
:103F20008D81282F30E08B859C85FC01E20FF31FEB
:103F300080E380838D818F5F8D832EC08D81282FBC
:103F400030E08B859C858C01020F131F8F81988533
:103F5000A985BA852AE030E040E050E0BC01CD01FF
:103F60000E942E3BDC01CB01805DF80180838D81B6
:103F70008F5F8D838F819885A985BA852AE030E08F
:103F800040E050E0BC01CD010E942E3BDA01C901A6
:103F90008F839887A987BA878F819885A985BA85E5
:103FA0000097A105B10551F68C81882369F08D81B8
:103FB000282F30E08B859C85FC01E20FF31F8DE2FA
:103FC00080838D818F5F8D838D81282F30E08B855D
:103FD0009C85FC01E20FF31F10821B828D818150B2
:103FE0008A832CC08B81282F30E08B859C85FC0137
:103FF000E20FF31F808189838B81282F30E08B852E
:104000009C85DC01A20FB31F8A81282F30E08B85AD
:104010009C85FC01E20FF31F80818C938A81282FFD
:1040200030E08B859C85FC01E20FF31F8981808342
:104030008B818F5F8B838A8181508A839B818A8168
:10404000981780F21E8202C083E08E838E812C96A8
:104050000FB6F894DEBF0FBECDBFCF91DF911F9199
:104060000F910895DF93CF93CDB7DEB7E6970FB6E4
:10407000F894DEBF0FBECDBF8EAB81E08BA78AE088
:10408000FE01BC96DF01982F1D929A95E9F781E019
:1040900062E040E00E9436158CA781E063E040E0DA
:1040A0000E9436158DA78EA9982F991F9927991FC1
:1040B00080E067E0492F0E9436158EA9829586958B
:1040C00086958370982F917080E066E0492F0E945A
:1040D00036158EA9829586958770982F917080E00D
:1040E00065E0492F0E9436158EA982958F70982F12
:1040F000917080E064E0492F0E94361581E063E012
:1041000041E00E94361580E090E0A0E8BFE38FA375
:1041100098A7A9A7BAA76FA178A589A59AA520E015
:1041200030E04AE755E40E949903DC01CB018BA300
:104130009CA3ADA3BEA36BA17CA18DA19EA120E0F9
:1041400030E040E85FE30E94CF0588232CF481E053
:1041500090E09AA389A33FC06BA17CA18DA19EA1F1
:1041600020E03FEF4FE757E40E946F0518164CF52B
:104170006FA178A589A59AA520E030E040E251E43E
:104180000E949903DC01CB01BC01CD010E94C30157
:10419000DC01CB019AA389A30FC080E991E098A329
:1041A0008F8F8F8D98A10197F1F798A38F8F89A199
:1041B0009AA101979AA389A389A19AA1009769F767
:1041C00014C06BA17CA18DA19EA10E94C301DC0142
:1041D000CB019AA389A389A19AA19E8F8D8F8D8DE2
:1041E0009E8D0197F1F79E8F8D8F81E063E040E017
:1041F0000E9436158EA9869586958695982F917082
:1042000080E067E0492F0E9436158EA98695869535
:10421000982F917080E066E0492F0E9436158EA994
:104220008695982F917080E065E0492F0E943615A1
:104230008EA9982F917080E064E0492F0E94361576
:1042400081E063E041E00E94361580E090E0A0E864
:10425000BFE3898F9A8FAB8FBC8F698D7A8D8B8DE1
:104260009C8D20E030E04AE755E40E949903DC0190
:10427000CB018D8B9E8BAF8BB88F6D897E898F899B
:10428000988D20E030E040E85FE30E94CF0588236E
:104290002CF481E090E09C8B8B8B3FC06D897E89F4
:1042A0008F89988D20E03FEF4FE757E40E946F051C
:1042B00018164CF5698D7A8D8B8D9C8D20E030E041
:1042C00040E251E40E949903DC01CB01BC01CD0125
:1042D0000E94C301DC01CB019C8B8B8B0FC080E95A
:1042E00091E09A8B898B89899A890197F1F79A8B4A
:1042F000898B8B899C8901979C8B8B8B8B899C8963
:10430000009769F714C06D897E898F89988D0E9406
:10431000C301DC01CB019C8B8B8B8B899C89988B97
:104320008F878F8598890197F1F7988B8F8781E028
:1043300063E040E00E94361580E090E0A0E0B0E449
:104340008B879C87AD87BE876B857C858D859E8599
:1043500020E030E04AE755E40E949903DC01CB01FC
:104360008F839887A987BA876F81788589859A8591
:1043700020E030E040E85FE30E94CF0588232CF482
:1043800081E090E09E838D833FC06F817885898531
:104390009A8520E03FEF4FE757E40E946F0518161B
:1043A0004CF56B857C858D859E8520E030E040E274
:1043B00051E40E949903DC01CB01BC01CD010E94B4
:1043C000C301DC01CB019E838D830FC080E991E0A6
:1043D0009C838B838B819C810197F1F79C838B83DA
:1043E0008D819E8101979E838D838D819E81009713
:1043F00069F714C06F81788589859A850E94C30109
:10440000DC01CB019E838D838D819E819A8389837C
:1044100089819A810197F1F79A8389838BA5E69622
:104420000FB6F894DEBF0FBECDBFCF91DF910895D8
:10443000DF93CF93CDB7DEB762970FB6F894DEBFA8
:104440000FBECDBF81E08A8382E08B8382E08C83C4
:1044500082E08D8382E08E8382E08F8383E0888791
:1044600084E0898785E08A8783E08B8783E08C8777
:1044700083E08D8783E08E8781E08F8783E0888B60
:1044800082E0898B87E08A8B1982198231C0898109
:10449000282F30E0CE010396FC01E20FF31F40818C
:1044A0008981282F30E0CE010796FC01E20FF31F2F
:1044B0009081842F692F40E00E944A148981282F1F
:1044C00030E0CE010396FC01E20FF31F40818981A9
:1044D000282F30E0CE010796FC01E20FF31F9081F8
:1044E000842F692F41E00E94361589818F5F89836F
:1044F0008981843060F2198231C08981282F30E0AF
:10450000CE010B96FC01E20FF31F40818981282F19
:1045100030E0CE010F96FC01E20FF31F9081842F53
:10452000692F41E00E944A148981282F30E0CE0192
:104530000B96FC01E20FF31F40818981282F30E0A8
:10454000CE010F96FC01E20FF31F9081842F692F9B
:1045500041E00E94361589818F5F8983898184308B
:1045600060F28A8162960FB6F894DEBF0FBECDBFAF
:10457000CF91DF910895DF93CF93CDB7DEB7EA9760
:104580000FB6F894DEBF0FBECDBF9DAB8CAB81E004
:104590008A8B82E08B8B82E08C8B82E08D8B82E039
:1045A0008E8B82E08F8B83E0888F84E0898F85E01B
:1045B0008A8F83E08B8F83E08C8F83E08D8F83E005
:1045C0008E8F81E08F8F83E088A382E089A387E0CC
:1045D0008AA3198A188AECA9FDA98FEF80838FEF2F
:1045E0008BA31F86188A42C18889282F30E0CE010C
:1045F0004B96FC01E20FF31F40818889282F30E0A1
:10460000CE014F96FC01E20FF31F9081842F692F9A
:1046100040E00E943615198A08C18989282F30E0A8
:10462000CE014396FC01E20FF31F40818989282FB8
:1046300030E0CE014796FC01E20FF31F90819E010E
:104640002D5D3F4F842F692FA9010E94BB168BA1BE
:10465000882309F0E7C080E090E0A0E4B0E48B8715
:104660009C87AD87BE876B857C858D859E8520E088
:1046700030E04AE755E40E949903DC01CB018F83C7
:104680009887A987BA876F81788589859A8520E080
:1046900030E040E85FE30E94CF0588232CF481E0FE
:1046A00090E09E838D833FC06F81788589859A8550
:1046B00020E03FEF4FE757E40E946F0518164CF5D6
:1046C0006B857C858D859E8520E030E040E251E45D
:1046D0000E949903DC01CB01BC01CD010E94C30102
:1046E000DC01CB019E838D830FC080E991E09C8328
:1046F0008B838B819C810197F1F79C838B838D81C8
:104700009E8101979E838D838D819E81009769F79D
:1047100014C06F81788589859A850E94C301DC0168
:10472000CB019E838D838D819E819A83898389812C
:104730009A810197F1F79A8389838989282F30E03C
:10474000CE014396FC01E20FF31F40818989282F97
:1047500030E0CE014796FC01E20FF31F90819E01ED
:104760002D5D3F4F842F692FA9010E94BB168BA19D
:10477000882309F057C0CE0184969FAB8EABE3ED42
:10478000F2E0F9AFE8AFF0E1FAAFE8ADF9AD0080E3
:1047900088AD99AD019699AF88AFEEA9FFA90082C7
:1047A0008EA99FA901969FAB8EAB9AAD91509AAFFF
:1047B000EAADEE2351F78989282F30E08889482F08
:1047C00050E0220F331F220F331FCE010196820FBC
:1047D000931F840F951FFC01B3968081ECA9FDA95E
:1047E00080831AC08989282F30E0CE014396FC01CE
:1047F000E20FF31F40818989282F30E0CE014796D0
:10480000FC01E20FF31F90819E012D5D3F4F842F2D
:10481000692FA9010E94BB168BA1882319F381E09F
:104820008F8707C089898F5F898B8989843008F4D5
:10483000F4CE8889282F30E0CE014B96FC01E20FA0
:10484000F31F40818889282F30E0CE014F96FC016C
:10485000E20FF31F9081842F692F41E00E943615EB
:104860008F85813039F088898F5F888B8889843083
:1048700008F4BACE8A89EA960FB6F894DEBF0FBE66
:10488000CDBFCF91DF910895DF93CF93CDB7DEB742
:1048900028970FB6F894DEBF0FBECDBF81E08A83A4
:1048A00086E0FE013396DF01982F1D929A95E9F775
:1048B00080E064E041E00E944A148B8380E065E080
:1048C00041E00E944A148C8380E066E041E00E944F
:1048D0004A148D8380E067E041E00E944A148E8391
:1048E00081E062E041E00E944A148F8381E061E050
:1048F00041E00E944A148887198223C08981282FA9
:1049000030E0CE010396FC01E20FF31F8081882383
:1049100059F08981282F30E0CE010396FC01E20F87
:10492000F31F80818A8310C08981282F30E0CE0157
:104930000396FC01E20FF31F80818A8389818F5FD8
:10494000898389818630D0F28A8128960FB6F894BF
:10495000DEBF0FBECDBFCF91DF910895DF93CF9320
:10496000CDB7DEB727970FB6F894DEBF0FBECDBF29
:104970008F8381E08A838F818A3008F04EC01B824A
:104980001C821D821E828F81982F917080E064E0CE
:10499000492F0E9436158B838F818695982F9170B1
:1049A00080E065E0492F0E9436158C838F818695C3
:1049B0008695982F917080E066E0492F0E94361509
:1049C0008D838F81869586958695982F917080E04E
:1049D00067E0492F0E9436158E8319821BC08A8199
:1049E000882359F08981282F30E0CE010396FC01FD
:1049F000E20FF31F80818A8310C08981282F30E065
:104A0000CE010396FC01E20FF31F80818A83898126
:104A10008F5F89838981843010F38A8127960FB64E
:104A2000F894DEBF0FBECDBFCF91DF910895DF9325
:104A3000CF9300D0CDB7DEB78A8381E089838A81A6
:104A4000823339F481E062E041E00E9436158983C7
:104A50000CC08A81843639F481E061E041E00E9433
:104A60003615898302C082E0898389810F900F9077
:104A7000CF91DF910895DF93CF9300D0CDB7DEB70C
:104A80008A8381E089838A81823339F481E062E01C
:104A900040E00E94361589830CC08A81843639F43F
:104AA00081E061E040E00E943615898302C082E027
:104AB000898389810F900F90CF91DF910895DF93C3
:104AC000CF9300D000D0CDB7DEB781E08A831C82BF
:104AD0001B8281E062E040E00E9436158B8381E01A
:104AE00061E040E00E9436158C83198223C08981E1
:104AF000282F30E0CE010396FC01E20FF31F8081E6
:104B0000813059F08981282F30E0CE010396FC01D5
:104B1000E20FF31F80818A8310C08981282F30E043
:104B2000CE010396FC01E20FF31F80818A83898105
:104B30008F5F898389818230D0F28A810F900F90B4
:104B40000F900F90CF91DF910895DF93CF93CDB762
:104B5000DEB780E063E041E00E944A14CF91DF912C
:104B60000895DF93CF93CDB7DEB780E063E041E0F7
:104B70000E943615CF91DF910895DF93CF93CDB783
:104B8000DEB780E063E040E00E943615CF91DF9110
:104B90000895DF93CF930F92CDB7DEB781E089837D
:104BA0000E94BB260E94DA1A0E94601A89810F9027
:104BB000CF91DF910895DF93CF93CDB7DEB72897DC
:104BC0000FB6F894DEBF0FBECDBF81E08E8380911B
:104BD000D2028D831C8240C01B8206C08C810E9441
:104BE000C4268B818F5F8B838B818436B8F380E002
:104BF0000E94401B8D81982F93508C81891718F04B
:104C000082E00E94401B9E01295F3F4F80E0B90176
:104C10000E94981A8091D202833640F48F818130AD
:104C200029F48091D2028F5F8093D2029E01295F86
:104C30003F4F81E0B9010E94981A8091D2028031E1
:104C400040F08F81813029F48091D202815080938D
:104C5000D2028C818F5F8C839C818D81891708F0B3
:104C6000BBCF80E00E94741B82E00E94741B1A82FA
:104C700040C0198206C08A810E94C42689818F5F44
:104C8000898389818436B8F381E00E94401B8D813D
:104C9000982F93508A81891718F082E00E94401B58
:104CA0009E01285F3F4F80E0B9010E94981A8091D1
:104CB000D202833640F48885813029F48091D20273
:104CC0008F5F8093D2029E01285F3F4F81E0B90140
:104CD0000E94981A8091D202803140F088858130FC
:104CE00029F48091D20281508093D2028A818F5F11
:104CF0008A839A818D81891708F0BBCF81E00E9459
:104D0000741B82E00E94741B8E8128960FB6F89463
:104D1000DEBF0FBECDBFCF91DF910895DF93CF935C
:104D20000F92CDB7DEB781E089830E945F2589812C
:104D30000F90CF91DF910895DF93CF9300D00F9222
:104D4000CDB7DEB79B838A8381E089838A819B818B
:104D5000009741F02A813B8182E0B9010E94981AB4
:104D6000198202C083E0898381E00F900F900F9039
:104D7000CF91DF910895DF93CF93CDB7DEB70E9437
:104D80004424CF91DF910895DF93CF93CDB7DEB761
:104D90006E970FB6F894DEBF0FBECDBF8E8F81E049
:104DA0008D8F8E8D843608F006C182E30E943B25EC
:104DB00084E60E943B258E8D9AE0692F0E94EC3A92
:104DC0000E94AE2482E30E94172580E090E0A0E2DA
:104DD000B1E4898F9A8FAB8FBC8F698D7A8D8B8D63
:104DE0009C8D20E030E04AE755E40E949903DC0105
:104DF000CB018D8B9E8BAF8BB88F6D897E898F8910
:104E0000988D20E030E040E85FE30E94CF058823E2
:104E10002CF481E090E09C8B8B8B3FC06D897E8968
:104E20008F89988D20E03FEF4FE757E40E946F0590
:104E300018164CF5698D7A8D8B8D9C8D20E030E0B5
:104E400040E251E40E949903DC01CB01BC01CD0199
:104E50000E94C301DC01CB019C8B8B8B0FC080E9CE
:104E600091E09A8B898B89899A890197F1F79A8BBE
:104E7000898B8B899C8901979C8B8B8B8B899C89D7
:104E8000009769F714C06D897E898F89988D0E947B
:104E9000C301DC01CB019C8B8B8B8B899C89988B0C
:104EA0008F878F8598890197F1F7988B8F8782E399
:104EB0000E943B258E8D9AE0692F0E94EC3A892F43
:104EC0000E94AE2484E60E94172580E090E0A0E2D4
:104ED000B1E48B879C87AD87BE876B857C858D858C
:104EE0009E8520E030E04AE755E40E949903DC010A
:104EF000CB018F839887A987BA876F817885898549
:104F00009A8520E030E040E85FE30E94CF058823E7
:104F10002CF481E090E09E838D833FC06F81788583
:104F200089859A8520E03FEF4FE757E40E946F059F
:104F300018164CF56B857C858D859E8520E030E0CC
:104F400040E251E40E949903DC01CB01BC01CD0198
:104F50000E94C301DC01CB019E838D830FC080E9D9
:104F600091E09C838B838B819C810197F1F79C83DB
:104F70008B838D819E8101979E838D838D819E8100
:104F8000009769F714C06F81788589859A850E949A
:104F9000C301DC01CB019E838D838D819E819A8329
:104FA000898389819A810197F1F79A8389830E9485
:104FB0005F251D8E02C082E08D8F8D8D6E960FB69F
:104FC000F894DEBF0FBECDBFCF91DF910895DF9380
:104FD000CF9300D0CDB7DEB781E08A830E94DB1B80
:104FE0000E94DA1A0E9418220E94A5250E945917D1
:104FF0008CE00E94361D80E061E040E00E944A148F
:1050000080E061E040E00E94361581E0898381E024
:105010000E9455180E941F1988E00E94E21881E042
:1050200060E00E946E198A810F900F90CF91DF91FE
:105030000895DF93CF93CDB7DEB72F970FB6F894CF
:10504000DEBF0FBECDBF81E08F878CE00E94361D92
:1050500080E690E061E044E00E946D338BE690E0F2
:1050600062E044E00E946D3380E090E0AAE7B4E49F
:105070008B879C87AD87BE876B857C858D859E855C
:1050800020E030E04AE755E40E949903DC01CB01BF
:105090008F839887A987BA876F81788589859A8554
:1050A00020E030E040E85FE30E94CF0588232CF445
:1050B00081E090E09E838D833FC06F8178858985F4
:1050C0009A8520E03FEF4FE757E40E946F051816DE
:1050D0004CF56B857C858D859E8520E030E040E237
:1050E00051E40E949903DC01CB01BC01CD010E9477
:1050F000C301DC01CB019E838D830FC080E991E069
:105100009C838B838B819C810197F1F79C838B839C
:105110008D819E8101979E838D838D819E810097D5
:1051200069F714C06F81788589859A850E94C301CB
:10513000DC01CB019E838D838D819E819A8389833F
:1051400089819A810197F1F79A83898381E00E948E
:10515000361D8F852F960FB6F894DEBF0FBECDBFDC
:10516000CF91DF910895DF93CF93CDB7DEB7C655CA
:10517000D0400FB6F894DEBF0FBECDBFFE01E05B9E
:10518000FF4F9183808381E08CAF89E790E061E0FD
:1051900041E00E946D3382E061E00E949A1D8AE046
:1051A000FE01FD96DF01982F1D929A95E9F71BAE3F
:1051B0001AAEFE01E05BFF4F80819181009709F4F8
:1051C000E0C28AAD833008F052C2CE01895B9F4FA6
:1051D0000E94BB22FE01E95BFF4F80818F3F89F374
:1051E0008BAD8A3008F0A0C1FE01E95BFF4F8081E2
:1051F000853409F085C1CE01885B9F4F64969FAFCF
:105200008EAF6497AEEDB0E06696BFAFAEAF669777
:10521000B8E06796BFAF67976696EEADFFAD66974D
:10522000008066968EAD9FAD6697019666969FAF9D
:105230008EAF66976496AEADBFAD64970C926496E0
:10524000EEADFFAD649731966496FFAFEEAF649715
:105250006796FFAD6797F1506796FFAF67976796C0
:105260008FAD67978823C1F61BAE1DC08BAD282F6D
:1052700030E0CE01CD96FC01E20FF31F40818BADF3
:10528000282F30E0CE01885B9F4FFC01E20FF31F17
:105290008081481731F481E089AF8BAD8F5F8BAF90
:1052A00002C019AE0CC08BAD282F30E0CE01885B58
:1052B0009F4FFC01E20FF31F80818823B9F689AD6F
:1052C000813009F089C00E94B1258BE890E061E04F
:1052D00041E00E946D3380E090E0AAEFB3E48DAB33
:1052E0009EABAFABB8AF6DA97EA98FA998AD20E0FA
:1052F00030E04AE755E40E949903DC01CB0189AB19
:105300009AABABABBCAB69A97AA98BA99CA920E0ED
:1053100030E040E85FE30E94CF0588232CF481E071
:1053200090E098AB8FA73FC069A97AA98BA99CA9E7
:1053300020E03FEF4FE757E40E946F0518164CF549
:105340006DA97EA98FA998AD20E030E040E251E43C
:105350000E949903DC01CB01BC01CD010E94C30175
:10536000DC01CB0198AB8FA70FC080E991E09EA72D
:105370008DA78DA59EA50197F1F79EA78DA78FA557
:1053800098A9019798AB8FA78FA598A9009769F75F
:1053900014C069A97AA98BA99CA90E94C301DC0148
:1053A000CB0198AB8FA78FA598A99CA78BA78BA59E
:1053B0009CA50197F1F79CA78BA70E94BD2581E0D2
:1053C0000E94361DFE01E05BFF4F0190F081E02D51
:1053D00081E080831BAED7C18AAD8F5F8AAF0E9408
:1053E000B12581E00E94361D8CE990E061E041E04A
:1053F0000E946D3380E090E0AAEFB3E48FA398A7FA
:10540000A9A7BAA76FA178A589A59AA520E030E041
:105410004AE755E40E949903DC01CB018BA39CA3CE
:10542000ADA3BEA36BA17CA18DA19EA120E030E025
:1054300040E85FE30E94CF0588232CF481E090E0F0
:105440009AA389A33FC06BA17CA18DA19EA120E05E
:105450003FEF4FE757E40E946F0518164CF56FA118
:1054600078A589A59AA520E030E040E251E40E94A9
:105470009903DC01CB01BC01CD010E94C301DC0119
:10548000CB019AA389A30FC080E991E098A38F8FE5
:105490008F8D98A10197F1F798A38F8F89A19AA179
:1054A00001979AA389A389A19AA1009769F714C0CB
:1054B0006BA17CA18DA19EA10E94C301DC01CB0147
:1054C0009AA389A389A19AA19E8F8D8F8D8D9E8D80
:1054D0000197F1F79E8F8D8F0E94BD258AAD833095
:1054E00068F481E00E94361D89E790E061E041E0C8
:1054F0000E946D3382E061E00E949A1D1BAE61CE76
:105500008AE20E94511D8BAD282F30E0FE01E95B3D
:10551000FF4F4081CE01CD96FC01E20FF31F408387
:105520008BAD8F5F8BAF4DCE8AAD8F5F8AAF0E9400
:10553000B12581E00E94361D8FEA90E061E041E0F4
:105540000E946D3382EC90E062E041E00E946D3396
:105550006AE070E080E090E00E94691E80E090E0E8
:10556000AAEFB3E4898F9A8FAB8FBC8F698D7A8D48
:105570008B8D9C8D20E030E04AE755E40E94990332
:10558000DC01CB018D8B9E8BAF8BB88F6D897E89B3
:105590008F89988D20E030E040E85FE30E94CF05DE
:1055A00088232CF481E090E09C8B8B8B3FC06D892D
:1055B0007E898F89988D20E03FEF4FE757E40E9466
:1055C0006F0518164CF5698D7A8D8B8D9C8D20E0BA
:1055D00030E040E251E40E949903DC01CB01BC01C0
:1055E000CD010E94C301DC01CB019C8B8B8B0FC0D2
:1055F00080E991E09A8B898B89899A890197F1F7E3
:105600009A8B898B8B899C8901979C8B8B8B8B893F
:105610009C89009769F714C06D897E898F89988D60
:105620000E94C301DC01CB019C8B8B8B8B899C89F5
:10563000988B8F878F8598890197F1F7988B8F8743
:105640000E94BD2581E00E94361D8AAD833068F43A
:1056500081E00E94361D89E790E061E041E00E9410
:105660006D3382E061E00E949A1D1BAEAACD0E94BC
:10567000B12581E00E94361D81ED90E061E041E0BE
:105680000E946D330E94BD2580E090E4ACE9B5E452
:105690008B879C87AD87BE876B857C858D859E8536
:1056A00020E030E04AE755E40E949903DC01CB0199
:1056B0008F839887A987BA876F81788589859A852E
:1056C00020E030E040E85FE30E94CF0588232CF41F
:1056D00081E090E09E838D833FC06F8178858985CE
:1056E0009A8520E03FEF4FE757E40E946F051816B8
:1056F0004CF56B857C858D859E8520E030E040E211
:1057000051E40E949903DC01CB01BC01CD010E9450
:10571000C301DC01CB019E838D830FC080E991E042
:105720009C838B838B819C810197F1F79C838B8376
:105730008D819E8101979E838D838D819E810097AF
:1057400069F714C06F81788589859A850E94C301A5
:10575000DC01CB019E838D838D819E819A83898319
:1057600089819A810197F1F79A83898381E00E9468
:10577000361DFE01E05BFF4F0190F081E02D1082AD
:1057800002C083E08CAF8CADCA5ADF4F0FB6F894DD
:10579000DEBF0FBECDBFCF91DF9108950F931F9352
:1057A000DF93CF93CDB7DEB7CF59D0400FB6F89483
:1057B000DEBF0FBECDBFFE01ED59FF4F81E08083FC
:1057C000CE018C599F4FC957DF4F99838883C758A3
:1057D000D0408DEF92E0C757DF4F99838883C95837
:1057E000D04098E0C557DF4F9883CB58D040C7577B
:1057F000DF4FE881F981C958D0400080C757DF4F9B
:1058000088819981C958D0400196C757DF4F998345
:105810008883C958D040C957DF4FE881F981C758FC
:10582000D0400082C957DF4F88819981C758D04046
:105830000196C957DF4F99838883C758D040C55711
:10584000DF4F9881CB58D0409150C557DF4F988398
:10585000CB58D040C557DF4FE881CB58D040EE231E
:1058600031F6CE018C599F4F64E00E94A032CE01E8
:1058700084599F4F0E94BB22FE01E459FF4F808153
:105880008F3FA9F3FE01E459FF4F8081813309F076
:10589000D0C3CE0183599F4FC457DF4F998388836C
:1058A000CC58D04085EF92E0C257DF4F9983888370
:1058B000CE58D04098E0C057DF4F9883C059D040B1
:1058C000C257DF4FE881F981CE58D0400080C257DF
:1058D000DF4F88819981CE58D0400196C257DF4F63
:1058E00099838883CE58D040C457DF4FE881F9812F
:1058F000CC58D0400082C457DF4F88819981CC5862
:10590000D0400196C457DF4F99838883CC58D0404C
:10591000C057DF4F9881C059D0409150C057DF4FDA
:105920009883C059D040C057DF4FE881C059D0405C
:10593000EE2331F6CE0183599F4F64E00E94A032DE
:10594000FE01E15AFF4F80E090E0A8E4B2E48083DA
:105950009183A283B3838E01055A1F4FFE01E15A42
:10596000FF4F608171818281938120E030E04AE7BE
:1059700055E40E949903DC01CB01F80180839183F7
:10598000A283B383FE01E55AFF4F6081718182815A
:10599000938120E030E040E85FE30E94CF05882358
:1059A00044F4FE01E75AFF4F81E090E09183808349
:1059B00064C0FE01E55AFF4F60817181828193814D
:1059C00020E03FEF4FE757E40E946F0518160CF0F8
:1059D00043C0FE01E15AFF4F608171818281938152
:1059E00020E030E040E251E40E949903DC01CB0169
:1059F0008E01075A1F4FBC01CD010E94C301DC017B
:105A0000CB01F801918380831FC0FE01E95AFF4F4B
:105A100080E991E091838083FE01E95AFF4F808104
:105A200091810197F1F7FE01E95AFF4F918380833D
:105A3000DE01A75ABF4FFE01E75AFF4F80819181D7
:105A4000019711969C938E93FE01E75AFF4F808138
:105A500091810097D1F627C08E01075A1F4FFE0192
:105A6000E55AFF4F60817181828193810E94C30159
:105A7000DC01CB01F80191838083DE01AB5ABF4F7B
:105A8000FE01E75AFF4F808191818D939C93FE0127
:105A9000EB5AFF4F808191810197F1F7FE01EB5A9C
:105AA000FF4F91838083CE0184599F4F0E94BB2278
:105AB000FE01E459FF4F80818F3F09F441CFCE01B1
:105AC0008B589F4FCF56DF4F99838883C159D04061
:105AD0008FEE92E0CD56DF4F99838883C359D04033
